:020000040800F2
:1000000000000320A94A0008F54A0008F54A000844
:10001000F54A0008F54A0008F54A0008000000000B
:10002000000000000000000000000000753F000814
:10003000F54A00080000000075410008CD410008A5
:10004000F54A0008F54A0008F54A0008F54A000894
:10005000F54A0008F54A0008F54A0008F54A000884
:10006000F54A0008F54A0008F54A0008F54A000874
:10007000F54A0008F54A0008F54A0008F54A000864
:10008000F54A0008F54A0008F54A0008F54A000854
:10009000F54A0008F54A0008F54A0008F54A000844
:1000A000F54A0008F54A0008F54A0008F54A000834
:1000B00079430008F54A0008F54A0008F54A0008A7
:1000C000F54A0008F54A0008F54A0008F54A000814
:1000D000F54A00082D490008F54A0008F54A0008CD
:1000E000F54A0008F54A0008F54A0008F54A0008F4
:1000F000F54A0008F54A0008F54A0008F54A0008E4
:10010000F54A0008F54A0008F54A0008F54A0008D3
:10011000F54A0008F54A0008F54A0008F54A0008C3
:10012000F54A0008F54A0008F54A0008F54A0008B3
:10013000F54A0008F54A0008F54A0008F54A0008A3
:10014000F54A0008F54A0008F54A0008F54A000893
:10015000F54A0008F54A0008F54A0008F54A000883
:10016000F54A0008F54A0008F54A0008F54A000873
:10017000F54A0008F54A0008F54A0008F54A000863
:10018000F54A0008F54A0008F54A0008F54A000853
:10019000F54A0008F54A0008F54A0008F54A000843
:0C01A00071490008F54A0008F54A000803
:1001B000B0400208000000201809002018090020A3
:1001C000F0490120844641EA000313F003036DD196
:1001D000403A41D351F8043B40F8043B51F8043B0A
:1001E00040F8043B51F8043B40F8043B51F8043B11
:1001F00040F8043B51F8043B40F8043B51F8043B01
:1002000040F8043B51F8043B40F8043B51F8043BF0
:1002100040F8043B51F8043B40F8043B51F8043BE0
:1002200040F8043B51F8043B40F8043B51F8043BD0
:1002300040F8043B51F8043B40F8043B51F8043BC0
:1002400040F8043B51F8043B40F8043B51F8043BB0
:1002500040F8043B403ABDD2303211D351F8043B50
:1002600040F8043B51F8043B40F8043B51F8043B90
:1002700040F8043B51F8043B40F8043B103AEDD2FF
:100280000C3205D351F8043B40F8043B043AF9D250
:10029000043208D0D2071CBF11F8013B00F8013B23
:1002A00001D30B8803806046704700BF082A13D330
:1002B0008B078DD010F003038AD0C3F10403D21A48
:1002C000DB071CBF11F8013B00F8013B80D331F87C
:1002D000023B20F8023B7BE7043AD9D3013A11F8FC
:1002E000013B00F8013BF9D20B7803704B78437067
:1002F0008B7883706046704740EA010C1CF0070F52
:1003000023D1BDF1100DCDE90245CDE900676FF0B5
:1003100000064FF0000700BFF0E80223F1E80245B5
:10032000A24282FA46FCA7FA86FC08BFBCF1000F85
:1003300040F0D780AB4283FA46FCA7FA86FC08BFA0
:10034000BCF1000F40F0CA80E6E710F0030C21D0AA
:1003500020F0030050F8042B5FEACC7C08D00FD2C9
:1003600011F801CB5FFA92F3B3EB0C0C10D17BB117
:1003700011F801CB5FFAA2F3B3EB0C0C08D13BB13F
:1003800011F801CB5FFAB2F3B3EB0C0C00D10BB94F
:1003900060467047BDF1100DCDE90245CDE900671B
:1003A0006FF000064FF0000711F0030C2DD110F094
:1003B000040F0DD050F8042B51F8044BA24282FADE
:1003C00046FCA7FA86FC08BFBCF1000F40F089800C
:1003D00011F0040F9FD051F8045B00BFF0E8022336
:1003E000AA4282FA46FCA7FA86FC08BFBCF1000FBD
:1003F00071D1F1E80245A34283FA46FCA7FA86FCD4
:1004000008BFBCF1000F63D1E8E721F00301BCF1A4
:10041000020F1ED03BDA51F8045B00BF50F8043BDA
:100420004FEA152583FA46FCA7FA86FCB7EB0C2F9A
:1004300003EA162208BFAA424DD151F8045BBCF171
:10044000000F82EA03034FEA056208BF93423CD1E2
:10045000E4E751F8045B00BF50F8043B4FEA154550
:1004600083FA46FCA7FA86FCB7EB0C4F03EA164268
:1004700008BFAA422FD151F8045BBCF1000F82EAF9
:1004800003034FEA054208BF93421ED1E4E751F847
:10049000045B00BF50F8043B4FEA156583FA46FC45
:1004A000A7FA86FCB7EB0C6F03EA166208BFAA42F4
:1004B00011D151F8045BBCF1000F82EA03034FEA4B
:1004C000052208BF934200D1E4E719BA12BA0AE044
:1004D00019BA22BA07E011BA2ABA04E019BA2ABA3C
:1004E00001E011BA22BA9CFA8CF0DDE90067DDE97F
:1004F00002451DF1100D38B1B0FA80F0C0F11800BE
:1005000021FA00F122FA00F20120914298BF8041C5
:10051000704700BF81F0004102E000BF83F000435C
:1005200030B54FEA41044FEA430594EA050F08BF8E
:1005300090EA020F1FBF54EA000C55EA020C7FEA52
:10054000645C7FEA655C00F0E2804FEA5454D4EBCF
:100550005555B8BF6D420CDD2C4480EA020281EA99
:10056000030382EA000083EA010180EA020281EAD1
:100570000303362D88BF30BD11F0004F4FEA013123
:100580004FF4801C4CEA113102D0404261EB410132
:1005900013F0004F4FEA03334CEA133302D05242B8
:1005A00063EB430394EA050F00F0A780A4F1010474
:1005B000D5F1200E0DDB02FA0EFC22FA05F28018AE
:1005C00041F1000103FA0EF2801843FA05F3594194
:1005D0000EE0A5F120050EF1200E012A03FA0EFC13
:1005E00028BF4CF0020C43FA05F3C01851EBE3713D
:1005F00001F0004507D54FF0000EDCF1000C7EEB5A
:1006000000006EEB0101B1F5801F1BD3B1F5001F97
:100610000CD349085FEA30004FEA3C0C04F10104B6
:100620004FEA445212F5800F80F09A80BCF1004FDF
:1006300008BF5FEA500C50F1000041EB045141EA61
:10064000050130BD5FEA4C0C404141EB010111F462
:10065000801FA4F10104E9D191F0000F04BF01460D
:100660000020B1FA81F308BF2033A3F10B03B3F1EB
:1006700020020CDA0C3208DD02F1140CC2F10C027B
:1006800001FA0CF021FA02F10CE002F11402D8BFD9
:10069000C2F1200C01FA02F120FA0CFCDCBF41EAA5
:1006A0000C019040E41AA2BF01EB0451294330BD74
:1006B0006FEA04041F3C1CDA0C340EDC04F1140451
:1006C000C4F1200220FA04F001FA02F340EA030028
:1006D00021FA04F345EA030130BDC4F10C04C4F16E
:1006E000200220FA02F001FA04F340EA030029464E
:1006F00030BD21FA04F0294630BD94F0000F83F498
:10070000801306BF81F480110134013D4EE77FEA7A
:10071000645C18BF7FEA655C29D094EA050F08BFC6
:1007200090EA020F05D054EA000C04BF19461046A7
:1007300030BD91EA030F1EBF0021002030BD5FEAEB
:10074000545C05D14000494128BF41F0004130BD13
:1007500014F580043CBF01F5801130BD01F0004567
:1007600045F0FE4141F470014FF0000030BD7FEADA
:10077000645C1ABF194610467FEA655C1CBF0B46D5
:10078000024650EA013406BF52EA033591EA030FEC
:1007900041F4002130BD00BF90F0000F04BF0021E4
:1007A000704730B54FF4806404F132044FF0000517
:1007B0004FF0000150E700BF90F0000F04BF002190
:1007C000704730B54FF4806404F1320410F00045F6
:1007D00048BF40424FF000013EE700BF42004FEAF1
:1007E000E2014FEA31014FEA02701FBF12F07F436E
:1007F00093F07F4F81F06051704792F0000F14BF6B
:1008000093F07F4F704730B54FF4607401F00045AE
:1008100021F0004120E700BF50EA010208BF704705
:1008200030B54FF000050AE050EA010208BF7047FA
:1008300030B511F0004502D5404261EB41014FF463
:10084000806404F132045FEA915C3FF4DCAE4FF067
:1008500003025FEADC0C18BF03325FEADC0C18BF4E
:10086000033202EBDC02C2F1200300FA03FC20FA9F
:1008700002F001FA03FE40EA0E0021FA02F11444EC
:10088000C1E600BF70B54FF0FF0C4CF4E06C1CEA01
:1008900011541DBF1CEA135594EA0C0F95EA0C0F76
:1008A00000F0DEF82C4481EA030621EA4C5123EAE9
:1008B0004C5350EA013518BF52EA033541F4801118
:1008C00043F4801338D0A0FB02CE4FF00005E1FBCB
:1008D00002E506F00042E0FB03E54FF00006E1FB15
:1008E00003569CF0000F18BF4EF0010EA4F1FF0458
:1008F000B6F5007F64F5407404D25FEA4E0E6D4198
:1009000046EB060642EAC62141EA55514FEAC520A8
:1009100040EA5E504FEACE2EB4F1FD0C88BFBCF524
:10092000E06F1ED8BEF1004F08BF5FEA500E50F1D5
:10093000000041EB045170BD06F0004646EA01019B
:1009400040EA020081EA0301B4EB5C04C2BFD4EBCD
:100950000C0541EA045170BD41F480114FF0000EC6
:10096000013C00F3AB8014F1360FDEBF002001F034
:10097000004170BDC4F10004203C35DA0C341BDCAE
:1009800004F11404C4F1200500FA05F320FA04F080
:1009900001FA05F240EA020001F0004221F00041B4
:1009A00010EBD37021FA04F642EB06015EEA430E27
:1009B00008BF20EAD37070BDC4F10C04C4F1200557
:1009C00000FA04F320FA05F001FA04F240EA02000A
:1009D00001F0004110EBD37041F100015EEA430EDB
:1009E00008BF20EAD37070BDC4F1200500FA05F2FB
:1009F0004EEA020E20FA04F301FA05F243EA02037A
:100A000021FA04F001F0004121FA04F220EA020088
:100A100000EBD3705EEA430E08BF20EAD37070BDCE
:100A200094F0000F0FD101F00046400041EB0101AE
:100A300011F4801F08BF013CF7D041EA060195F090
:100A4000000F18BF704703F00046520043EB03034A
:100A500013F4801F08BF013DF7D043EA0603704737
:100A600094EA0C0F0CEA135518BF95EA0C0F0CD042
:100A700050EA410618BF52EA4306D1D181EA030188
:100A800001F000414FF0000070BD50EA410606BF82
:100A90001046194652EA430619D094EA0C0F02D1C7
:100AA00050EA013613D195EA0C0F05D152EA03360C
:100AB0001CBF104619460AD181EA030101F000412A
:100AC00041F0FE4141F470014FF0000070BD41F073
:100AD000FE4141F4780170BD70B54FF0FF0C4CF44D
:100AE000E06C1CEA11541DBF1CEA135594EA0C0F6C
:100AF00095EA0C0F00F0A7F8A4EB050481EA030EB9
:100B000052EA03354FEA013100F088804FEA03339F
:100B10004FF0805545EA131343EA12634FEA02226D
:100B200045EA111545EA10654FEA00260EF000412E
:100B30009D4208BF964244F1FD0404F5407402D280
:100B40005B084FEA3202B61A65EB03055B084FEA11
:100B500032024FF480104FF4002CB6EB020E75EB0E
:100B6000030E22BFB61A754640EA0C005B084FEA36
:100B70003202B6EB020E75EB030E22BFB61A7546B3
:100B800040EA5C005B084FEA3202B6EB020E75EBFE
:100B9000030E22BFB61A754640EA9C005B084FEA76
:100BA0003202B6EB020E75EB030E22BFB61A754683
:100BB00040EADC0055EA060E18D04FEA051545EA72
:100BC00016754FEA06164FEAC30343EA52734FEA1B
:100BD000C2025FEA1C1CC0D111F4801F0BD141EA94
:100BE00000014FF000004FF0004CB6E711F4801FF9
:100BF00004BF01430020B4F1FD0C88BFBCF5E06FD9
:100C00003FF6AFAEB5EB030C04BFB6EB020C5FEAE8
:100C1000500C50F1000041EB045170BD0EF0004E3D
:100C20004EEA113114EB5C04C2BFD4EB0C0541EA6F
:100C3000045170BD41F480114FF0000E013C90E66C
:100C400045EA060E8DE60CEA135594EA0C0F08BF30
:100C500095EA0C0F3FF43BAF94EA0C0F0AD150EA2F
:100C600001347FF434AF95EA0C0F7FF425AF1046C2
:100C700019462CE795EA0C0F06D152EA03353FF4EA
:100C8000FDAE1046194622E750EA410618BF52EA67
:100C900043067FF4C5AE50EA41047FF40DAF52EA3B
:100CA00043057FF4EBAE12E74FF0FF3C06E000BFD8
:100CB0004FF0010C02E000BF4FF0010C4DF804CDE5
:100CC0004FEA410C7FEA6C5C4FEA430C18BF7FEAA5
:100CD0006C5C1BD001B050EA410C0CBF52EA430CD3
:100CE00091EA030F02BF90EA020F0020704710F153
:100CF000000F91EA030F58BF994208BF90422CBFE2
:100D0000D8176FEAE37040F0010070474FEA410CDA
:100D10007FEA6C5C02D150EA013C07D14FEA430CF8
:100D20007FEA6C5CD6D152EA033CD3D05DF8040B69
:100D3000704700BF8446104662468C46194663469B
:100D400000E000BF01B5FFF7B7FF002848BF10F172
:100D5000000F01BD4DF808EDFFF7F4FF0CBF0120B7
:100D600000205DF808FB00BF4DF808EDFFF7EAFF33
:100D700034BF012000205DF808FB00BF4DF808EDEE
:100D8000FFF7E0FF94BF012000205DF808FB00BFE3
:100D90004DF808EDFFF7CEFF94BF012000205DF86D
:100DA00008FB00BF4DF808EDFFF7C4FF34BF01207A
:100DB00000205DF808FB00BF4FEA410212F5001267
:100DC00015D211D56FF47873B3EB625212D94FEA92
:100DD000C12343F0004343EA505311F0004F23FA7C
:100DE00002F018BF404270474FF00000704750EAD1
:100DF000013005D111F0004008BF6FF0004070478E
:100E00004FF00000704700BF4BB942B9002908BF3E
:100E1000002802D04FF0FF31084600F03BB882B006
:100E2000EC462DE9005000F01DF8DDF804E002B0BA
:100E30000CBC70472DE97043069E14461D46804643
:100E4000894600F029F804FB01F300FB0533A4FBFD
:100E500000451D44B8EB040469EB0505C6E90045EF
:100E6000BDE870832DE97043069E1446804689468E
:100E70001D4600F05DF900FB05F504FB0153A0FBE6
:100E800004451D44B8EB040469EB0505C6E90045BB
:100E9000BDE87083704700BF00292DE9F00FC0F254
:100EA0009F800024002BC0F29680154606460F4610
:100EB000002B3ED18A4257D9B2FA82F34BB1C3F12B
:100EC000200201FA03F720FA02F29D40174300FACC
:100ED00003F6290CB7FBF1F2330C01FB127CA8B22C
:100EE00043EA0C4700FB02F3BB4209D97F1902F128
:100EF000FF3C80F00181BB4240F2FE80023A2F4469
:100F0000FF1AB7FBF1F3B6B201FB137146EA0141D8
:100F100000FB03F0884208D9491903F1FF3780F03C
:100F2000ED80884240F2EA80023B43EA024200231D
:100F300003E08B420AD900231A461046194614B121
:100F4000404261EB4101BDE8F00F7047B3FA83F80E
:100F5000B8F1000F40F084808B4202D3824200F24D
:100F6000DE8000230122E8E712B90123B3FBF2F58A
:100F7000B5FA85F2002A39D17F1B280C1FFA85FCAF
:100F80000123B7FBF0F1320C00FB117742EA07476F
:100F90000CFB01F2BA4207D97F1901F1FF3802D2E6
:100FA000BA4200F2C1804146BF1AB7FBF0F2B6B2B6
:100FB00000FB127046EA00400CFB02FC844507D996
:100FC000401902F1FF3702D2844500F2AB803A4665
:100FD00042EA0142B1E7E443524263EB430364E770
:100FE000404261EB41014FF0FF345BE79540C2F1B5
:100FF000200327FA03F1280C26FA03F39740B1FBEC
:10100000F0F81F433B0C00FB18111FFA85FC43EA64
:1010100001410CFB08F38B4206FA02F608D9491984
:1010200008F1FF3279D28B4277D9A8F1020829441E
:10103000C91AB1FBF0F3BFB200FB131147EA014735
:101040000CFB03F2BA4207D97F1903F1FF3160D2DA
:10105000BA425ED9023B2F44BF1A43EA084390E7E5
:10106000C8F1200203FA08FC25FA02F343EA0C0C4B
:101070004FEA1C4921FA02F301FA08F720FA02F2BA
:10108000B3FBF9F1174309FB11333A0C1FFA8CFB40
:1010900042EA03430BFB01FA9A4505FA08F008D926
:1010A00013EB0C0301F1FF3235D29A4533D90239E3
:1010B0006344CAEB0303B3FBF9F209FB1233BFB27B
:1010C00047EA03470BFB02F9B94508D917EB0C07B0
:1010D00002F1FF331BD2B94519D9023A674442EAFB
:1010E0000145A5FB0001C9EB07078F424FF0000344
:1010F0000AD305D02A4620E7624601E73B4614E7BB
:1011000006FA08F68642F5D26A1E002315E71A464B
:10111000E5E70B46A0E71146CBE7904688E7434654
:1011200042460AE7023A53E702392F443CE700BF40
:101130002DE9F00F144605460E46002B43D18A4296
:1011400053D9B2FA82F757B1C7F1200620FA06F652
:1011500001FA07F302FA07F41E4300FA07F5210C1F
:10116000B6FBF1F22B0C01FB1267A0B243EA074673
:1011700000FB02F3B34209D9361902F1FF3780F0C0
:10118000F680B34240F2F380023A2644F61AB6FBE8
:10119000F1F3ADB201FB136145EA014100FB03F03D
:1011A000884208D9091903F1FF3680F0E2808842AD
:1011B00040F2DF80023B43EA024200231046194618
:1011C000BDE8F00F70478B424AD8B3FA83F6002E81
:1011D0004DD18B4202D3824200F2D68000230122FD
:1011E00010461946BDE8F00F704712B90124B4FB50
:1011F000F2F4B4FA84F2002A7CD1091B260CA7B2BF
:101200000123B1FBF6F02A0C06FB101142EA014162
:1012100007FB00F28A4207D9091900F1FF3C02D20C
:101220008A4200F2C3806046891AB1FBF6F2ADB281
:1012300006FB121145EA014507FB02F7AF4208D948
:101240002C1902F1FF3180F09680A74240F2938082
:10125000023A42EA004210461946BDE8F00F7047D4
:1012600000231A4610461946BDE8F00F7047C6F134
:10127000200522FA05F4B3401C434FEA144821FA32
:1012800005F301FA06F720FA05F5B3FBF8FC2F4346
:1012900008FB1C333D0C1FFA84FA45EA03430AFBA2
:1012A0000CF9994502FA06FB04D91B190CF1FF321F
:1012B0006DD39446C9EB0303B3FBF8F508FB153374
:1012C000BFB247EA03470AFB05F8B84504D93F19FE
:1012D00005F1FF3361D31D4645EA0C4CACFB0B23F3
:1012E000C8EB07079F424FF0000549D345D062463F
:1012F0002B4663E79440C2F1200321FA03FC260C3D
:1013000020FA03F301FA02F5BCFBF6F843EA050103
:101310000B0C06FB18CCA7B243EA0C4C07FB08F3F6
:10132000634500FA02F509D91CEB040C08F1FF3201
:101330003AD2634538D9A8F10208A444C3EB0C0C97
:10134000BCFBF6F389B206FB13CC41EA0C4107FB68
:1013500003F28A4207D9091903F1FF3022D28A42E7
:1013600020D9023B2144891A43EA084349E73A4617
:101370000CE733461FE70A466BE7B0409042B6D20F
:101380000CF1FF32002319E73346324616E7994540
:101390008FD9ACF1020C23448CE7B8459BD9023DB0
:1013A000274499E70346DEE79046C7E70238214421
:1013B0003AE700BF90B5ADF28C4D04AF03F00EFBE1
:1013C000B24813F0A9F80246B14B1A6014200A2162
:1013D000002203F01DFD0246AE4B1A6001200121E0
:1013E000002203F015FD0246AB4B1A6001200021DC
:1013F000032203F00DFD0246A84B1A6001200021D4
:10140000032203F005FD0246A54B1A60A54C07F523
:101410008D63184602F0A2F907F58D630FCB84E8BF
:101420000F00A14C07F58D63184602F0B9F9234669
:1014300007F58D6292E8030083E803009B4C3B466E
:10144000184602F0C5F93B4621461A4640F264436D
:10145000084611461A46FEF7B5FE01200021032278
:1014600003F0D6FC0246924B1A60012000210322B1
:1014700003F0CEFC02468F4B1A601420012100229B
:1014800003F0C6FC02468C4B1A60012000210322A7
:1014900003F0BEFC0246894B1A60012000210322A2
:1014A00003F0B6FC0246864B1A600120002103229D
:1014B00003F0AEFC0246834B1A6014200121002287
:1014C00003F0A6FC0246804B1A6001200021032293
:1014D00003F09EFC02467D4B1A60052300937C4B73
:1014E00001937C487C494FF47A72002304F018FD84
:1014F00003230093794B019379487A494FF47A7228
:10150000002304F00DFD042300930023019376488B
:1015100076494FF47A72002304F002FD022300930F
:10152000734B0193734874494FF47A72002304F0AB
:10153000F7FC02230093714B0193714871494FF4FA
:101540007A72002304F0ECFC022300936E4B0193AB
:101550006E486F494FF47A72002304F0E1FC0123D6
:1015600000936C4B01936C486C494FF47A720023E2
:1015700004F0D6FC02230093694B0193694B02935C
:1015800069486A49C822002304F080FC01230093C3
:10159000674B0193674868494FF47A72002304F05F
:1015A000BFFC01230093654B0193654865494FF4E7
:1015B0007A72002304F0B4FC02230093624B01937F
:1015C000624863494FF47A72002304F0A9FC0223B5
:1015D0000093604B0193604860494FF47A72002396
:1015E00004F09EFC042300935D4B01935D485E492B
:1015F0004FF47A72002304F093FC042300935B4BB6
:1016000001935B485B494FF47A72002304F088FC35
:1016100014200A21002203F0FBFB0246564B1A60FD
:1016200001230093554B0193554856494FF47A7264
:10163000002304F075FC02230093534B019353489D
:1016400053494FF47A72002304F06AFC0323009399
:10165000504B0193504851494FF47A72002304F0E3
:101660005FFC042300934E4B01934E484E494FF4C8
:101670007A72002304F054FC01200021032203F0BD
:10168000C7FB0246494B1A6092E000BFB8FA010856
:1016900018090020400900204409002020090020EA
:1016A00024090020040D0020140D00201C0D002032
:1016B000280900202C090020E00C0020300900201F
:1016C0003409002038090020F00C00203C090020DB
:1016D000480900205D180008C8FA010858090020D0
:1016E0004D190008D8FA0108FD340008E8FA01088D
:1016F0004C090020C91B0008F8FA01085009002015
:10170000712300080CFB010854090020692C000813
:1017100020FB01085C090020F12D000834FB0108C2
:10172000C009002060090020292E000848FB01089C
:10173000E40C0020612E00085CFB0108E80C00208E
:10174000A52E000870FB0108EC0C0020E92E000813
:1017500084FB0108F40C0020212F000890FB0108F5
:10176000F80C0020592F0008A4FB0108FC0C0020F5
:10177000B9300008B8FB0108000D002080110020DE
:10178000C1320008CCFB0108841100204933000855
:10179000D8FB010888110020E5330008E4FB0108AC
:1017A0008C11002075340008F0FB01089411002012
:1017B0001F4B1B68184604F06FFF1E4B1B68184632
:1017C00004F06AFF1C4B1B68184604F065FF1B4BB6
:1017D0001B68184604F060FF194B1B68184604F09C
:1017E0005BFF184B1B68184604F056FF164B1B682E
:1017F000184604F051FF154B1B68184604F04CFFC7
:10180000134B1B68184604F047FF124B1B68184621
:1018100004F042FF104B1B68184604F03DFF05F032
:10182000C7F80023184607F27C47BD4690BD00BFAD
:101830004C0900205009002054090020E40C00202D
:10184000E80C0020FC0C0020F80C00208011002087
:1018500084110020881100208C11002080B588B0F0
:1018600000AF786005F0CAF903463B610023FB61D5
:101870001423BB61184B1B6818460021002200236B
:1018800003F046FC154B1B68184600214FF0FF3251
:10189000002303F059FE03F0D5F83B69FB6107F123
:1018A00010031846B96904F001FD3A69FB69D31ABF
:1018B0007B614FF47A727B69B2FBF3F3DBB2FB73AB
:1018C000074B1A6807F10F03104619460022002340
:1018D00003F01EFCCEE700BF2409002020090020F1
:1018E000E00C002080B483B000AF78600B46FB7042
:1018F000FB78002B02D0012B11D021E07B681B78F4
:10190000DBB2002B03D17B6803221A7018E07B68DE
:101910001B78DBB2013BDAB27B681A7010E07B689F
:101920001B78DBB2032B03D17B6800221A7006E020
:101930007B681B78DBB20133DAB27B681A7000BFB8
:101940000C37BD465DF8047B704700BF80B584B09E
:1019500000AF78600123BB730123FB7300237B730B
:10196000FB7B002B00D02AE0724B1A6807F10D03B5
:10197000104619464FF0FF32002303F0E5FD034601
:10198000012B1CD17B7B012B08D107F10E031846DC
:101990000121FFF7A7FF0123FB7310E07B7B022BE4
:1019A0000DD107F10E0318460021FFF79BFF07F149
:1019B0000E0318460021FFF795FF0123FB73FB7B05
:1019C000002B00F0B680BB7B022B3ED0032B76D0E1
:1019D000012B00D0ADE0584B1B68184604F05CFEAC
:1019E000564B1B68184604F057FE554B1B681846AB
:1019F00004F052FE534B1B68184604F04DFE524B48
:101A00001B68184604F048FE504B1B68184604F04B
:101A100043FE4F4B1B68184604F03EFE4D4B1B68BF
:101A2000184604F039FE4C4B1B68184604F034FE8F
:101A30004A4B1B68184604F02FFE494B1B6818469A
:101A400004F0EAFE0023FB7373E03F4B1B6818466B
:101A500004F022FE3D4B1B68184604F01DFE3C4B73
:101A60001B68184604F018FE3A4B1B68184604F031
:101A700013FE3B4B1B68184604F00EFE374B1B68E9
:101A8000184604F009FE344B1B68184604F0C4FEE7
:101A9000294B1B68184604F0BFFE284B1B681846EC
:101AA00004F0BAFE274B1B68184604F0B5FE244B21
:101AB0001B68184604F0B0FE0023FB7339E01E4B90
:101AC0001B68184604F0E8FD1C4B1B68184604F020
:101AD000E3FD1B4B1B68184604F0DEFD194B1B6829
:101AE000184604F0D9FD1E4B1B68184604F0D4FDBF
:101AF000194B1B68184604F0CFFD184B1B6818469D
:101B000004F08AFE104B1B68184604F085FE0F4B4C
:101B10001B68184604F080FE0D4B1B68184604F045
:101B20007BFE0C4B1B68184604F076FE0023FB730B
:101B300000BF15E744090020E40C0020E80C002059
:101B4000FC0C0020F80C00208011002084110020E3
:101B5000881100208C110020500900205409002019
:101B60004C09002080B483B000AF63469A687A6065
:101B70009A68002A06D19A6801329A6000225A6057
:101B80007B6819E09A68C72A0CDC5A68002A04D1DD
:101B90009A6801329A607B680EE09A68013A9A600E
:101BA0007B6809E09A68C82A06D19A68013A9A6067
:101BB00001225A607B68FFE718460C37BD465DF886
:101BC000047B7047000000002DE9F041CEB002AF69
:101BD0003B1D1860012387F8AB300023C7F82C3178
:101BE0000023C7F828310023C7F824310023C7F8A1
:101BF00020310023C7F8A4300123C7F8A030002308
:101C0000C7F89C30B24B1B68184600214FF0FF32DA
:101C1000002303F099FC0346012B40F0778300BFBB
:101C2000AC4B1A6807F1AC0310461946002200239A
:101C300003F08AFC0346012BF2D0042001F0D2FC11
:101C40000346002B09D0A44B1A6807F1AB031046DA
:101C500019466422002303F05BFAA04B1B68184668
:101C60004FF6FF7113F090F897F8AC301D4697F8D7
:101C7000AD301C469A480CF099FC03461A4607F111
:101C8000B8030092184697492A46234618F03CF9B3
:101C9000924B186897F8AC30DB08DBB21A4697F81D
:101CA000AD30DB08DBB290490C6811B21AB207F113
:101CB000B80300940024019414F032FC97F8B0307B
:101CC000002B04D0D7F82C310133C7F82C3197F80A
:101CD000B130002B04D0D7F828310133C7F82831B0
:101CE00097F8B230002B04D0D7F824310133C7F86D
:101CF000243197F8B330002B04D0D7F820310133CA
:101D0000C7F8203197F8B530002B0BD00023C7F867
:101D10002C310023C7F828310023C7F824310023D1
:101D2000C7F8203107F1B803D7F824210092D7F87B
:101D30002021019218466D49D7F82C21D7F8283177
:101D400018F0E2F8654B186897F8AC30DB08DBB2A6
:101D50001A4697F8AD30DB08DBB20B339BB29BB26F
:101D600061490C6811B21AB207F1B803009400245B
:101D7000019414F0D5FB594B196897F8AC30DB0887
:101D8000DBB2A0339BB29AB297F8AD30DB08DBB27E
:101D900078339BB29BB212B21BB2032000904FF477
:101DA00082600190084611461A46514B13F0D2FD4D
:101DB0004A4B1E6807F19C039C4600F0B9FA0346A3
:101DC000B4331846FEF7F8FC02460B461046194697
:101DD0003DA3D3E90023FEF755FD02460B4610460E
:101DE00019464FF00002434BFEF776FE02460B46C3
:101DF000104619461CF0F8FC02460B4610461946E0
:101E00004FF000023C4BFEF73DFD02460B461446E8
:101E10001D4697F8AC30DB08DBB21846FEF7CCFC69
:101E200002460B4620462946FEF77AFB02460B4641
:101E3000104619464FF00002304BFEF771FB024688
:101E40000B4610461946FEF7B7FF03461FFA83F804
:101E500007F19C039C4600F06BFA0346B433184626
:101E6000FEF7AAFC02460B461046194616A3D3E914
:101E70000023FEF707FD02460B46104619464FF0B9
:101E800000021C4BFEF728FE02460B461046194680
:101E90001CF0E4FC02460B46104619464FF00002C7
:101EA000154BFEF7EFFC02460B4614461D4697F80D
:101EB000AD30DB08DBB21846FEF77EFC02460B466F
:101EC0001EE000BFAFF30080F1D4C853FB210940EE
:101ED00024090020400900204409002078470120FF
:101EE00000210140FCFB01081809002028FC010822
:101EF0004C0202080080664000004440000064403C
:101F000020462946FEF70CFB02460B4610461946B2
:101F10004FF000026C4BFEF703FB02460B461046E7
:101F20001946FEF749FF03469BB20FFA88F21BB22F
:101F30000C2100914FF620510191304611461A466E
:101F40000C2312F043FF614B1E6807F19C039C4673
:101F500000F0EEF903461846FEF72EFC02460B464B
:101F60001046194654A3D3E90023FEF78BFC024622
:101F70000B46104619464FF00002554BFEF7ACFDDC
:101F800002460B46104619461CF02EFC02460B4634
:101F9000104619464FF000024E4BFEF773FC024606
:101FA0000B4614461D4697F8AC30DB08DBB21846EA
:101FB000FEF702FC02460B4620462946FEF7B0FA21
:101FC00002460B46104619464FF00002424BFEF700
:101FD000A7FA02460B4610461946FEF7EDFE0346E9
:101FE0001FFA83F807F19C039C4600F0A1F9034611
:101FF0001846FEF7E1FB02460B46104619462EA393
:10200000D3E90023FEF73EFC02460B461046194674
:102010004FF000022E4BFEF75FFD02460B461046C6
:1020200019461CF01BFC02460B46104619464FF0A1
:102030000002284BFEF726FC02460B4614461D46BE
:1020400097F8AD30DB08DBB21846FEF7B5FB024669
:102050000B4620462946FEF763FA02460B46104619
:10206000194617A3D3E90023FEF75AFA02460B4696
:1020700010461946FEF7A0FE03469BB20FFA88F2FF
:102080001BB24FF404410091304611461A460C230E
:1020900013F022FA07F10C02104B11461A464623A0
:1020A000084611461A46FEF78DF8002387F81F31BF
:1020B00099E000BFAFF30080F1D4C853FB21094081
:1020C0000000000000C05C4000005E407847012036
:1020D00000806640000044400000644040FC01086D
:1020E0008D4B1E6807F19C039C46FFF73BFD0346A2
:1020F0009CB297F81F3107F10C02462101FB03F354
:102100001A44864B1B681046194614F06FFD0346AF
:10211000DA0F13445B109BB29BB2E31A9AB297F8A2
:10212000AC30DB08DBB213449BB23C339BB21FFAEA
:1021300083F87A4B1B681846002114F0DDFC034637
:102140001846FEF739FB04460D4697F81F3118462E
:10215000FEF732FB02460B46104619464FF00002CE
:102160006F4BFEF7DDF902460B4620462946FEF787
:1021700089FB02460B4614461D4697F8AD30DB0836
:10218000DBB21846FEF718FB02460B4620462946EE
:10219000FEF7C6F902460B46104619464FF00002FC
:1021A000604BFEF7BDF902460B4610461946FEF796
:1021B00003FE03469AB297F81F3107F10C0146203F
:1021C00000FB03F30B44554908680FFA88F112B27B
:1021D000009000200190304614F0A2F997F81F31CA
:1021E000013387F81F3197F81F31002B3FF478AF88
:1021F0004D4B07F154011A464623084611461A462C
:10220000FDF7E0FF002387F81E317AE0424B1E689D
:1022100097F8AC30DB08DBB21C4697F81E3107F1AB
:102220005402462101FB03F31A443C4B1B68104641
:10223000194614F0DBFC0346DA0F13445B109BB223
:102240009BB2E31A9BB2A0339BB21FFA83F8334BC5
:102250001B681846002114F04FFC03461846FEF791
:10226000ABFA04460D4697F81E311846FEF7A4FA5D
:1022700002460B46104619464FF00002284BFEF767
:102280004FF902460B4620462946FEF7FBFA024666
:102290000B4614461D4697F8AD30DB08DBB21846F6
:1022A000FEF78AFA02460B4620462946FEF738F921
:1022B00002460B461046194615A3D3E90023FEF744
:1022C0002FF902460B4610461946FEF775FD0346E8
:1022D0009AB297F81E3107F15401462000FB03F330
:1022E0000B440E4908680FFA88F112B200900020E2
:1022F0000190304614F014F997F81E31013387F835
:102300001E3197F81E31002B80D07BE47AE400BFA9
:1023100000000000002067407847012018090020D5
:102320000000E03F0000344088FC0108AFF300806B
:1023300080B483B000AF63461A687A601A68B2F559
:10234000B47F04DA1A6801321A607B6807E01A6801
:10235000B2F5B47F03D100221A607B68FFE718460C
:102360000C37BD465DF8047B704700BF00000000DD
:102370002DE9F041B6B002AF7860824B07F16401FD
:102380001A464623084611461A46FDF71BFF07F179
:102390001C024623104600211A4617F049FD01236E
:1023A000FB730023C7F8CC300023C7F8C8300023E4
:1023B000C7F8C4300123C7F8C0300023C7F8BC30C9
:1023C0000123C7F8B8300123C7F8B430002387F8D9
:1023D000B330002387F8B2306B4B1B6818460021DE
:1023E0004FF0FF32002303F0AFF80346012B40F01B
:1023F000278400BF654B1A6807F110031046194681
:102400000022002303F0A0F80346012BF2D00420A1
:1024100001F0E8F80346002B09D05D4B1A6807F17C
:102420000F03104619466422002302F071FE594B37
:102430001B6818464FF6FF7112F0A6FC564B1B683E
:10244000184600210022002303F07EF80346012BEA
:1024500008D1D7F8B830002B14BF00230123DBB21A
:10246000C7F8B8304D4B1B681846002100220023E6
:1024700003F06AF80346012B08D1D7F8B430002BDB
:1024800014BF00230123DBB2C7F8B430D7F8B8304B
:10249000012B19D13F4B196897F8B330DB08DBB239
:1024A0008C339BB29AB297F8B230DB08DBB246337A
:1024B0009BB29BB212B21BB21F200090084611467D
:1024C0001A460C2313F008F8D7F8B430012B1AD1B0
:1024D000304B196897F8B330DB08DBB2B4339BB2EA
:1024E0009AB297F8B230DB08DBB246339BB29BB2AC
:1024F00012B21BB24FF478400090084611461A46BB
:102500000C2312F0E9FF264B1B681846002100221D
:10251000002303F019F80346012B04D1D7F8CC307F
:102520000133C7F8CC301F4B1B681846002100222E
:10253000002303F009F80346012B04D1D7F8C83073
:102540000133C7F8C830184B1B6818460021002219
:10255000002302F0F9FF0346012B05D10023C7F841
:10256000CC300023C7F8C83007F11C0318460F49C8
:10257000D7F8CC20D7F8C83017F0C6FC002387F86E
:10258000B13090E038FD0108240900204009002006
:102590004409002078470120280900202C09002048
:1025A000300900203409002038090020D0FC01083F
:1025B0008D4B1E6897F8B330DB08DBB21C4697F8EA
:1025C000B13007F11C02462101FB03F31A44874B8B
:1025D0001B681046194614F009FB0346DA0F134432
:1025E0005B109BB29BB2E31A9BB2A0339BB21FFA63
:1025F00083F87E4B1B681846002114F07DFA0346D1
:102600001846FEF7D9F804460D4697F8B13018463B
:10261000FEF7D2F802460B46104619464FF000026C
:10262000734BFDF77DFF02460B4620462946FEF719
:1026300029F902460B4614461D4697F8B230DB08CE
:10264000DBB21846FEF7B8F802460B46204629468C
:10265000FDF766FF02460B46104619464FF0000292
:10266000644BFDF75DFF02460B4610461946FEF728
:10267000A3FB03469AB297F8B13007F11C0146203C
:1026800000FB03F30B44594908680FFA88F112B2B2
:10269000009000200190304613F042FF97F8B130CF
:1026A000013387F8B13097F8B130002B80D0002388
:1026B00087F8B0307AE04C4B1E6897F8B330DB08EF
:1026C000DBB21C4697F8B03007F16402462101FBEB
:1026D00003F31A44454B1B681046194614F086FA5A
:1026E0000346DA0F13445B109BB29BB2E31A9BB212
:1026F000A0339BB21FFA83F83C4B1B68184600219D
:1027000014F0FAF903461846FEF756F804460D464B
:1027100097F8B0301846FEF74FF802460B461046C1
:1027200019464FF00002324BFDF7FAFE02460B4607
:1027300020462946FEF7A6F802460B4614461D46DB
:1027400097F8B230DB08DBB21846FEF735F80246E0
:102750000B4620462946FDF7E3FE02460B4610468F
:1027600019461FA3D3E90023FDF7DAFE02460B4604
:1027700010461946FEF720FB03469AB297F8B03090
:1027800007F16401462000FB03F30B441749086876
:102790000FFA88F112B2009000200190304613F039
:1027A000BFFE97F8B030013387F8B03097F8B030FB
:1027B000002B80D0104B1A6807F10E031046194603
:1027C0000022002302F0C0FEBB7B07F11C02104672
:1027D0000A491A4617F098FB002387F8AF308AE0C1
:1027E0000000000000C06240784701201809002066
:1027F0000000E03F00406040E00C0020ECFC0108DD
:10280000644B1E6897F8B330DB08DBB21C4697F8C0
:10281000AF3007F11C02462101FB03F31A445E4B63
:102820001B681046194614F0E1F90346DA0F134409
:102830005B109BB29BB2E31A9BB2A0339BB21FFA10
:1028400083F8554B1B681846002114F055F90346D0
:102850001846FDF7B1FF04460D4697F8AF3018460D
:10286000FDF7AAFF02460B46104619464FF000023C
:102870004A4BFDF755FE02460B4620462946FEF719
:1028800001F802460B4614461D4697F8B230DB08A5
:10289000DBB21846FDF790FF02460B46204629465C
:1028A000FDF73EFE02460B46104619464FF0000269
:1028B0003B4BFDF735FE02460B4610461946FEF728
:1028C0007BFA03469AB297F8AF3007F11C01462015
:1028D00000FB03F30B44304908680FFA88F112B289
:1028E000009000200190304613F01AFE97F8AF30A8
:1028F000013387F8AF3097F8AF30002B80D0294BE9
:102900001B68184600210022002302F01DFE03462A
:10291000012B04D1D7F8C4300133C7F8C4300220EA
:1029200000F060FE0346002B0BD0D7F8C030002B20
:1029300014BF00230123DBB2C7F8C0300123C7F85E
:10294000BC30D7F8BC30002B18D0D7F8C030002BE3
:1029500008D1154B1B68184603F09EFE0023C7F8EC
:10296000BC300BE0D7F8C030002B07D00E4B1B68F3
:10297000184603F051FF0023C7F8BC3007F11C03D1
:1029800018460A49D7F8C42017F0BEFA002387F882
:10299000AE3088E078470120180900200000E03FB1
:1029A000008061403C090020F40C0020F4FC010888
:1029B000A44B1E6897F8B330DB08DBB21C4697F8CF
:1029C000AE3007F11C02462101FB03F31A449E4B73
:1029D0001B681046194614F009F90346DA0F134430
:1029E0005B109BB29BB2E31A9BB2A0339BB21FFA5F
:1029F00083F8954B1B681846002114F07DF80346B8
:102A00001846FDF7D9FE04460D4697F8AE30184635
:102A1000FDF7D2FE02460B46104619464FF0000263
:102A20008A4BFDF77DFD02460B4620462946FDF701
:102A300029FF02460B4614461D4697F8B230DB08C4
:102A4000DBB21846FDF7B8FE02460B462046294683
:102A5000FDF766FD02460B46104619464FF0000290
:102A60007B4BFDF75DFD02460B4610461946FEF70F
:102A7000A3F903469AB297F8AE3007F11C0146203D
:102A800000FB03F30B44704908680FFA88F112B297
:102A9000009000200190304613F042FD97F8AE30D0
:102AA000013387F8AE3097F8AE30002B80D0694BF9
:102AB0001B68184600214FF0FF32002302F044FD4E
:102AC0000346012B40F09E80624B1B7A1A46614BF5
:102AD0005B7A6049897A0C465E49C97A084607F1F3
:102AE0001C010094019008465B4917F00DFA594B00
:102AF0001B68184600210022002302F009FB002376
:102B000087F8AD307AE04F4B1E6897F8B330DB089A
:102B1000DBB21C4697F8AD3007F11C02462101FBE1
:102B200003F31A44484B1B681046194614F05EF82C
:102B30000346DA0F13445B109BB29BB2E31A9BB2BD
:102B4000A0339BB21FFA83F83F4B1B681846002145
:102B500013F0D2FF03461846FDF72EFE04460D463D
:102B600097F8AD301846FDF727FE02460B46104693
:102B700019464FF00002354BFDF7D2FC02460B46DA
:102B800020462946FDF77EFE02460B4614461D46AA
:102B900097F8B230DB08DBB21846FDF70DFE0246AF
:102BA0000B4620462946FDF7BBFC02460B46104665
:102BB00019464FF00002294BFDF7B2FC02460B46C6
:102BC00010461946FEF7F8F803469AB297F8AD306A
:102BD00007F11C01462000FB03F30B441A49086867
:102BE0000FFA88F112B2009000200190304613F0E5
:102BF00097FC97F8AD30013387F8AD3097F8AD30DA
:102C0000002B80D0164B1B68184600214FF0FF3276
:102C1000002302F099FC0346012B11D1104B1B79C4
:102C200087F8B3300E4B5B7987F8B2300C4B1B68DA
:102C3000184600210022002302F06AFAFFF7CCBBFD
:102C4000FFF7CABB78470120180900200000E03FC9
:102C500000005E40040D002008FD010800805B407C
:102C6000140D0020AFF300802DE9F04188B002AFD1
:102C700078600223FB72564B1B68184600214FF008
:102C8000FF32002302F060FC0346012B40F09F80DE
:102C900000BF504B1A6807F10C031046194600227A
:102CA000002302F051FC0346012BF2D0042000F077
:102CB00099FC0346002B09D0474B1A6807F10B0318
:102CC000104619466422002302F022FA434B1B6887
:102CD00018464FF6FF7112F057F8414B1B68184623
:102CE00000214FF0FF32002302F02EFC0346012B9F
:102CF0006DD10023FB755EE0384B1E68FB7D4622DC
:102D000002FB03F2364B13441A1D364B1B68104668
:102D1000194613F06BFF0346DA0F13445B109BB2A6
:102D20009BB2C3F18C039BB21FFA83F82D4B1B6837
:102D30001846002113F0E0FE03461846FDF73CFD5F
:102D400004460D46FB7D1846FDF736FD02460B4650
:102D5000104619464FF00002234BFDF7E1FB0246F7
:102D60000B4620462946FDF78DFD02460B461046D0
:102D700019464FF000021D4BFDF7D2FB02460B46F1
:102D800010461946FEF718F803469AB2FB7D462115
:102D900001FB03F1124B0B440433124908680FFA8C
:102DA00088F112B2009000200190304613F0B8FB79
:102DB000FB7D0133FB75FB7D0E2B9DD9084B1B68FA
:102DC000184600210022002302F0A2F953E752E73F
:102DD00024090020400900204409002078470120F0
:102DE0001C0D0020180900200000E03F0080414039
:102DF00080B584B000AF786003F000FF0346BB608D
:102E00004FF4FA73FB60074B1B6818460021002241
:102E1000002302F07DF907F108031846F96803F072
:102E200045FAF0E72809002080B584B000AF78604B
:102E300003F0E4FE0346BB604FF47A73FB60074B7C
:102E40001B68184600210022002302F061F907F1F7
:102E500008031846F96803F029FAF0E72C09002066
:102E600080B584B000AF786003F0C8FE0346BB6055
:102E70001423FB60002000F0B5FB0346002B07D0B5
:102E8000074B1B68184600210022002302F040F97E
:102E900007F108031846F96803F008FAEAE700BFEB
:102EA0003009002080B584B000AF786003F0A6FE42
:102EB0000346BB601423FB60012000F093FB034634
:102EC000002B07D0074B1B68184600210022002367
:102ED00002F01EF907F108031846F96803F0E6F955
:102EE000EAE700BF3409002080B584B000AF786005
:102EF00003F084FE0346BB6043F69823FB60074B58
:102F00001B68184600210022002302F001F907F196
:102F100008031846F96803F0C9F9F0E738090020FA
:102F200080B584B000AF786003F068FE0346BB60F4
:102F30004FF47A73FB60074B1B6818460021002290
:102F4000002302F0E5F807F108031846F96803F0DA
:102F5000ADF9F0E73C09002080B58CB000AF786097
:102F600003F04CFE0346FB611423BB6214237B6217
:102F7000002387F82F304F4B1A6807F110031046D3
:102F800019466422002302F0DFFA3A7C7B7C53402E
:102F9000DAB23B7D5340DAB27B7D5340DAB2BB7D7F
:102FA0005340DAB2FB7D5340DAB23B7E5340DAB293
:102FB0007B7E534087F823303B7D002B02D00123DA
:102FC00087F82F307B7D002B02D0012387F82F302C
:102FD000BB7D002B02D0012387F82F30FB7D002B17
:102FE00002D0012387F82F307B7E002B02D00123F3
:102FF00087F82F303B7C1A463B7BD31A002BB8BF97
:103000005B42DBB23B727B7C1A467B7BD31A002B84
:10301000B8BF5B42DBB27B723B7A1A467B6A9A424C
:1030200002DD012387F82F307B7A1A467B6A9A42A9
:1030300002DD012387F82F3097F82F30002B2ED098
:10304000AA23184601F0B2FC3B7C184601F0AEFC06
:103050007B7C184601F0AAFC3B7D184601F0A6FCDB
:103060007B7D184601F0A2FCBB7D184601F09EFC5A
:10307000FB7D184601F09AFC3B7E184601F096FC59
:103080007B7E184601F092FC97F82330184601F039
:103090008DFC5523184601F089FC3B8ABB81002337
:1030A00087F82F3007F11C031846B96A03F0FEF8C1
:1030B00061E700BF4009002080B58CB000AF7860A8
:1030C00003F09CFD03463B621423BB62002387F898
:1030D0002F3007F1140300221A60043300221A6013
:1030E000043300221A80023300221A70013307F1E0
:1030F000080300221A60043300221A6004330022FD
:103100001A8002336B4B1A6807F11F0310461946E9
:103110004FF0FF32002302F017FA97F82F300A2BF6
:1031200000F2C18001A151F823F000BF593100081D
:103130007F3100087F3100087F3100087F310008AF
:103140007F3100087F3100087F3100087F3100089F
:103150007F3100089B310008FA7FAA239A4200D0F1
:10316000A1E097F82F30FA7F07F130010B4403F804
:103170001C2C97F82F30013387F82F3093E097F805
:103180002F30FA7F07F130010B4403F81C2C97F81D
:103190002F30013387F82F3085E07A7DBB7D534097
:1031A000DAB2FB7D5340DAB23B7E5340DAB27B7E2B
:1031B0005340DAB2BB7E5340DAB2FB7E5340DAB200
:1031C0003B7F534087F82730FA7F55239A4266D1D8
:1031D0007B7F97F827209A4261D17B7D3B72BB7D34
:1031E0007B72FB7D3B733B7E7B737B7EBB73BB7EC5
:1031F000FB73FB7E3B743B7F7B742F4B1B68184635
:1032000000214FF0FF32002302F09EF93B7B002BA0
:1032100005D0294B1B7A0133DAB2274B1A727B7B1C
:10322000002B05D0244B5B7A0133DAB2224B5A7261
:10323000BB7B002B05D0204B9B7A0133DAB21E4BAF
:103240009A72FB7B002B05D01B4BDB7A0133DAB281
:10325000194BDA72184B1B68184600210022002314
:1032600001F056FF154B1B68184600214FF0FF3246
:10327000002302F069F93B7A002B02D07A7D0F4BD4
:103280001A717B7A002B02D0BA7D0C4B5A710B4B12
:103290001B68184600210022002301F039FF00239B
:1032A00087F82F3000BF07F120031846B96A02F0F3
:1032B000FDFF27E71C090020040D0020140D00204D
:1032C00090B587B000AF786003F098FC0346FB60D0
:1032D000FB687B6101233B6103F090FC02467B6944
:1032E000D31A0E2B25D8164B1B68184600214FF019
:1032F000FF32002302F028F903F080FC02467B69CC
:10330000D31A462202FB03F20D4B13441C1D204628
:1033100016F020FE034623440A4A11889278198049
:103320009A70074B1B68184600210022002301F009
:10333000EFFE07F10C031846396902F0B7FFCBE73F
:103340001C0D002080FD010890B587B000AF7860AB
:1033500003F054FC0346FB60FB687B6102233B6186
:1033600003F04CFC02467B69D31A0E2B2DD81A4B66
:103370001B68184600214FF0FF32002302F0E4F8EA
:1033800003F03CFC02467B69D31A462202FB03F29F
:10339000114B13441C1D204616F0DCFD034623444C
:1033A0000E4A1188927819809A700B4B1B68184648
:1033B00000210022002301F0ABFE094B1B681846D8
:1033C00000210022002301F0A3FE07F10C031846A0
:1033D000396902F06BFFC3E71C0D002084FD010872
:1033E0009411002090B585B000AF786003F006FC22
:1033F000F860FB68BB6003F001FC0246BB68D31AAF
:103400000E2B2FD8184B1B68184600214FF0FF32A7
:10341000002302F099F8154B1B68184600214FF065
:10342000FF32002302F090F803F0E8FB0246BB688D
:10343000D31A462202FB03F20C4B13441C1D2046F8
:1034400016F088FD03462344094A118892781980B2
:103450009A70064B1B68184600210022002301F0D9
:1034600057FEC8E7C7E700BF941100201C0D0020DD
:1034700088FD010890B587B000AF786003F0BEFB0F
:103480000346FB60FB687B6104233B6103F0B6FBF2
:1034900002467B69D31A0E2B25D8164B1B6818469B
:1034A00000214FF0FF32002302F04EF803F0A6FB9C
:1034B00002467B69D31A462202FB03F20D4B1344EA
:1034C0001C1D204616F046FD034623440A4A118877
:1034D000927819809A70074B1B68184600210022C9
:1034E000002301F015FE07F10C031846396902F0BC
:1034F000DDFECBE71C0D00208CFD010880B588B0F7
:1035000000AF786003F07AFB0346BB6107F10C0360
:1035100000221A60043300221A60043300221A8049
:1035200002331423FB6128480BF040F803461B09C3
:103530009BB2DBB23B7325480BF038F803461B09FE
:103540009BB2DBB2DB43DBB27B731F480BF02EF880
:1035500003461B099BB2DBB2BB731C480BF026F879
:1035600003461B099BB2DBB2DB43DBB2FB730020DB
:1035700000F038F803463B74012000F033F80346AE
:103580007B74022000F02EF80346BB74032000F089
:1035900029F80346FB7400233B75052000F022F850
:1035A00003467B750A4B1A6807F10C03104619464F
:1035B0000022002301F0ACFD07F118031846F96959
:1035C00002F074FEAFE700BF00200140002201407E
:1035D0004009002080B400AFFEE700BF80B400AF18
:1035E000FEE700BF90B583B000AF0346FB71FB79E7
:1035F000052B63D801A252F823F000BF153600084E
:10360000313600084D360008693600088536000856
:10361000A13600084A48402108F0E2FC0346002B8E
:1036200014BF00230123DBB21A46464B1A7046E052
:103630004348102108F0D4FC0346002B14BF00239C
:103640000123DBB21A463F4B1A7038E03C48202178
:1036500008F0C6FC0346002B14BF00230123DBB295
:103660001A46384B1A702AE03548042108F0B8FC95
:103670000346002B14BF00230123DBB21A46314B53
:103680001A701CE03048012108F0AAFC0346002B08
:1036900014BF00230123DBB21A462A4B1A700EE036
:1036A0002748082108F09CFC0346002B14BF002388
:1036B0000123DBB21A46234B1A7000E000BF214BF6
:1036C0001B78012B0DD1FA79204B53F82230002BB7
:1036D00007D1FC7903F092FA03461A461C4B43F8D3
:1036E000242003F08BFA03461A46F979184B53F855
:1036F0002130D21A174B1B689A4215D9114B1B78EF
:103700001A46F979144B53F821309A420CD0FA79C1
:103710000C4B1B781946104B43F82210094B1B78B1
:10372000012B01D1012307E0FA79064B1B781946DA
:10373000064B43F82210002318460C37BD4690BDB7
:1037400000100240F81100200000024098110020F3
:10375000C811002000000020B011002090B587B0F3
:1037600000AF786007F1080300221A6004330022DA
:103770001A60043300221A60043300221A600433F2
:10378000012001F0BDFB0346BB607B681C4607F1CE
:1037900008030FCB84E80F0078681C37BD4690BD46
:1037A00080B584B000AF78600023BB600023FB606D
:1037B000012001F0A5FB0346BB607B6807F108020E
:1037C00092E8030083E8030078681037BD4680BDA7
:1037D00090B5ADF2744D00AF3B1D186007F10C03BE
:1037E0001A4640F26443104600211A4616F020FBA8
:1037F00007F10C038C4A1A6007F10C048B4A231D55
:1038000007CA03C31A7004F10D023D2310460021BC
:103810001A4616F00DFB07F10C04854B04F14A0221
:1038200003CB106051601B78137204F153023D23E7
:10383000104600211A4616F0FBFA07F10C047D4AE7
:1038400004F1900307CA03C31A7004F199023D23DF
:10385000104600211A4616F0EBFA07F10C04764BDD
:1038600004F1D60203CB106051601B78137204F18F
:10387000DF023D23104600211A4616F0D9FA07F15F
:103880000C046E4A04F58E7307CA03C31A7004F25F
:1038900025123D23104600211A4616F0C9FA07F1F9
:1038A0000C04674B04F5B17203CB106051601B78B8
:1038B000137204F26B123D23104600211A4616F0D3
:1038C000B7FA07F10C045F4A04F5D47307CA03C3BF
:1038D0001A7004F2B1123D23104600211A4616F068
:1038E000A7FA07F10C04584B04F5F77203CB1060EC
:1038F00051601B78137204F2F7123D231046002129
:103900001A4616F095FA07F10C04504A04F50D73A7
:1039100007CA03C31A7004F23D223D23104600215A
:103920001A4616F085FA07F10C04494B04F27A2284
:1039300003CB106051601B88138104F521723C2376
:10394000104600211A4616F073FA07F10C04414A9A
:1039500004F5307307CA03C31A8004F2CA223C2359
:10396000104600211A4616F063FA07F10C043A4B90
:1039700004F2063203CB106051601B88138104F5FA
:1039800044723C23104600211A4616F051FA07F102
:103990000C04324A04F5537307CA03C31A8004F2B5
:1039A00056323C23104600211A4616F041FA07F120
:1039B0000C042B4B04F2923203CB106051601B8835
:1039C000138104F567723C23104600211A4616F055
:1039D0002FFA07F10C04234A04F5767307CA03C3D0
:1039E0001A8004F2E2323C23104600211A4616F0F7
:1039F0001FFA012001F084FA024607F10C031A6055
:103A00003B1D1A6807F10C0311461A4640F2644345
:103A1000084611461A46FCF7D5FB3B1D186807F20D
:103A20007447BD4690BD00BF90FD010894FD01089C
:103A3000DCFD010824FE01086CFE0108B4FE01084B
:103A4000FCFE010844FF01088CFF0108D4FF0108B7
:103A50001C00020864000208AC000208F40002081E
:103A60003C0102088401020880B5ADF5BD6D00AFD0
:103A70003B1D186007F108031A464FF4BC6310465B
:103A800000211A4616F0D4F9012001F039FA024655
:103A900007F108031A603B1D1A6807F10803114675
:103AA0001A464FF4BC63084611461A46FCF78AFBD7
:103AB0003B1D186807F5BD67BD4680BD80B485B065
:103AC00000AFF860B9607A60FB68064A1A60BB68AC
:103AD000054A1A607B6882221A601437BD465DF879
:103AE000047B7047FC1100205C12002080B485B07C
:103AF00000AFF860B9607A60FB68074A1A60BB687B
:103B0000064A1A607B684FF482721A601437BD4609
:103B10005DF8047B704700BF64140020C4140020CB
:103B200080B582B000AF78607B6800229A610EF0A9
:103B3000B9F80EF011F90A48012107F0F9FD09481A
:103B4000012107F0F5FD012007F010FD012007F02D
:103B500089FC00200EF070F90837BD4680BD00BF1B
:103B6000846801400469014080B584B000AF78608A
:103B70000B46FB70FA7813461B029B1A074A82FB1E
:103B800003125211DB17D31AFB81FB89DBB21846F3
:103B90000EF0CCF91037BD4680BD00BF1F85EB513C
:103BA00080B582B000AF78607B6800225A61786887
:103BB000FFF7B6FF78686421FFF7D6FF7B684FF404
:103BC000A0721A817B68F0225A817B685A229A81FE
:103BD0007B6803229A737B686422DA737B683222E3
:103BE0001A74FF235BB218460837BD4680BD00BF7C
:103BF00080B584B000AF78607B689B89B42B17D008
:103C0000B3F5877F24D05A2B06D07B689B8DFB8130
:103C10007B68DB8DBB8126E07B68DB8DFB817B686D
:103C20009B8D9BB2C3F59F7301339BB2BB811AE09E
:103C30007B689B8D9BB2C3F59F7301339BB2FB8165
:103C40007B68DB8D9BB2C3F1EF039BB2BB810AE0C3
:103C50007B68DB8D9BB2C3F1EF039BB2FB817B687A
:103C60009B8DBB8100BF7B689B8F18460EF030F99F
:103C7000FA89BB8910461946012200230EF076FB13
:103C80001037BD4680BD00BF80B584B000AF7860FE
:103C90007B689B8F18460EF01BF97B689B89B42BC1
:103CA00029D0B3F5877F3CD05A2B0CD07B689B8DF5
:103CB000FB817B68DB8DBB817B681B8E7B817B6896
:103CC0005B8E3B813EE07B68DB8DFB817B689B8D5F
:103CD0009BB25B429AB27B681B8E9BB2D31A9BB29B
:103CE00003F5A0739BB2BB817B681B8E3B817B6815
:103CF0005B8E7B8126E07B689B8D9BB2C3F59F73B7
:103D000001339BB2FB817B68DB8D9BB2C3F1EF0378
:103D10009BB2BB817B681B8E7B817B685B8E3B810A
:103D200010E07B68DB8D9BB2C3F1EF039BB2FB819C
:103D30007B689B8DBB817B681B8E3B817B685B8E28
:103D40007B8100BFF889B9897A893B890FF06CF8CB
:103D50001037BD4680BD00BF80B582B000AF78602F
:103D60007B689B8F18460EF0B3F800200021F022EC
:103D70004FF4A0730FF058F80837BD4680BD00BF60
:103D800080B582B000AF4020012108F0D9FD4FF48A
:103D9000C0433B6001233B710023BB710023FB71D7
:103DA00002237B713B460948194608F04FF8084842
:103DB0000021022216F03CF8064B044A1A60054B1B
:103DC000024A5A600837BD4680BD00BF0018024055
:103DD000D4180020D818002080B582B000AF7860D9
:103DE00039607B68012B22D800F074F93B68002B06
:103DF00005D0104A7B68134401221A7004E00D4A72
:103E00007B68134400221A700B4B7A6853F8221017
:103E10000A4B7A6833F8122006487B6803441B7803
:103E2000084611461A4608F047F900F06FF90837BE
:103E3000BD4680BDD4180020D8180020B802020862
:103E400080B582B000AF78607B68012B22D800F08B
:103E500041F9124A7B6813441B78002B14BF0023DE
:103E60000123DBB21A460D497B680B441A700C4BD8
:103E70007A6853F822100B4B7A6833F812200748FF
:103E80007B6803441B78084611461A4608F014F96B
:103E900000F03CF90837BD4680BD00BFD4180020B3
:103EA000D8180020B802020880B483B000AF786050
:103EB0007B68012B04D8064A7B6813441B7800E01A
:103EC000002318460C37BD465DF8047B704700BFE1
:103ED000D418002080B485B000AFF860B9607A6073
:103EE000FB68043BFB60FB684FF080721A60FB6864
:103EF000043BFB60BA68FB681A60FB68043BFB602C
:103F00000C4AFB681A60FB68143BFB607A68FB682C
:103F10001A60FB68043BFB60FB686FF002021A60EA
:103F2000FB68203BFB60FB6818461437BD465DF814
:103F3000047B7047393F000880B483B000AF0C4B5E
:103F40001B68B3F1FF3F09D04FF0500383F3118892
:103F5000BFF36F8FBFF34F8F7B60FEE74FF05003CF
:103F600083F31188BFF36F8FBFF34F8F3B60FEE782
:103F700004000020064B19680868B0E8F04F80F391
:103F80000988BFF36F8F4FF0000080F311887047EE
:103F90003819002005480068006880F3088862B678
:103FA000BFF34F8FBFF36F8F00DF00BF08ED00E05E
:103FB00080B584B000AF2C4BFB60FB681B78DBB294
:103FC000BB60FB68FF221A70FB681B78DBB2FB71D9
:103FD000FB79DBB203F05003DAB2244B1A70244BA6
:103FE00007221A6009E0224B1B685A1E204B1A60F8
:103FF000FB79DBB25B00DBB2FB71FB79DBB2DBB2DE
:104000005BB2002BEFDB1A4B1B681A02184B1A60CD
:10401000174B1B6803F4E062154B1A60BB68DAB2F9
:10402000FB681A70134B134A126842F470021A604C
:10403000104B104A126842F070421A6000F0E8F823
:104040000D4B00221A6000F0F5F80C4B0B4A126879
:1040500042F040421A60FFF79DFFFFF76DFF00231B
:1040600018461037BD4680BD00E400E0E01800208F
:10407000E418002020ED00E00400002034EF00E010
:1040800080B483B000AF0A4B1B68B3F57A7F09D0C8
:104090004FF0500383F31188BFF36F8FBFF34F8F3F
:1040A0007B60FEE70C37BD465DF8047B704700BFC0
:1040B0000400002080B400AF054B4FF080521A601E
:1040C000BFF34F8FBFF36F8FBD465DF8047B704722
:1040D00004ED00E080B483B000AF4FF0500383F3F1
:1040E0001188BFF36F8FBFF34F8F7B60064B1B6848
:1040F0005A1C054B1A60BFF34F8FBFF36F8F0C37FD
:10410000BD465DF8047B70470400002080B483B096
:1041100000AF104B1B68002B09D14FF0500383F305
:104120001188BFF36F8FBFF34F8F7B60FEE7094BA2
:104130001B685A1E074B1A60064B1B68002B04D1E4
:1041400000233B603B6883F311880C37BD465DF864
:10415000047B704704000020EFF311804FF0500102
:1041600081F3118870470023184600BF80F311883F
:10417000704700BFEFF30980BFF36F8F124B1A68CF
:104180001EF0100F08BF20ED108A20E9F04F1060DC
:104190004DF8043D4FF0500080F3118802F0D0FE3E
:1041A0004FF0000080F3118808BC19680868B0E877
:1041B000F04F1EF0100F08BFB0EC108A80F3098892
:1041C000BFF36F8F704700BF3819002080B584B0EF
:1041D00000AFEFF311824FF0500383F31188BFF368
:1041E0006F8FBFF34F8FFA60BB6002F0E5FD0346AF
:1041F000002B03D0054B4FF080521A6000237B60E8
:104200007B6883F311881037BD4680BD04ED00E064
:1042100080B400AF044B054A1A60054B07221A60B0
:10422000BD465DF8047B704714E000E03F9002005B
:1042300010E000E0DFF80C00016841F4700101605B
:104240007047000088ED00E080B485B000AFEFF368
:104250000583FB60FB680F2B13D9154AFB681344D9
:104260001B78FB72134B1B78FA7A9A4209D24FF0F3
:10427000500383F31188BFF36F8FBFF34F8F7B60C1
:10428000FEE70D4B1B6803F4E0620C4B1B689A427F
:1042900009D94FF0500383F31188BFF36F8FBFF339
:1042A0004F8F3B60FEE71437BD465DF8047B7047D7
:1042B000F0E300E0E01800200CED00E0E41800203E
:1042C00080B586B000AF0120012108F093FB0220E9
:1042D000012108F08FFB4FF080400AF0DBFB2548FE
:1042E0000AF0D8FB07F1080318460AF01BFD42F25A
:1042F000D0037B617B699BB2FB6000233B81002381
:104300003B8200237B8107F108034FF08040194670
:104310000AF09EFC4FF0804001210AF0C3FD4FF6E9
:10432000FF73FB6007F10803124819460AF090FC7E
:10433000104801210AF0B6FD1C233B710023BB711C
:1043400000237B710123FB713B1D184604F0DAFB4F
:104350004FF08040012101220BF0C4FD4FF080405E
:1043600001210AF0F7FD034801210AF0F3FD183797
:10437000BD4680BD0004004080B582B000AF194B3F
:104380005B6AFB80184B1B88042B15D9174B1B88C5
:10439000FA88D31ABB80164B1B88BA889A4211D967
:1043A000134BBA881A80124B1B88A3F50353103B9A
:1043B0009AB2104B1A8005E00B4B1B8801339AB25E
:1043C000094B1A80094BFA881A800B4B1B685A1C40
:1043D000094B1A604FF0804001210BF00BFE0837AB
:1043E000BD4680BD00040040F0180020F2180020F7
:1043F000F4180020E8180020EC18002080B500AF69
:10440000154B154AD2F8882042F47002C3F8882070
:10441000124B124A126842F001021A600F4B00223E
:104420009A600E4A0D4B1B6823F0847323F480338B
:1044300013600A4B0A4A5A60084B084A126822F471
:1044400080221A60054B0022DA6000F087F8024BE8
:104450004FF000629A6080BD00ED00E0003802403D
:104460001030002480B487B000AF00233B610023EC
:104470007B610223FB600023BB6002237B60324B25
:104480009B6803F00C033B613B69042B07D0082BAE
:1044900009D0002B3FD12D4B2D4A1A603FE02B4B0A
:1044A0002C4A1A603BE0284B5B6803F480039B0DA9
:1044B000BB60254B5B6803F03F037B60BB68002B50
:1044C0000DD0244A7B68B2FBF3F21F4B596847F6C4
:1044D000C0730B409B0903FB02F37B610CE01C4A99
:1044E0007B68B2FBF3F2184B596847F6C0730B4078
:1044F0009B0903FB02F37B61134B5B6803F44033BE
:104500001B0C01335B00FB607A69FB68B2FBF3F2C2
:104510000E4B1A6003E00D4B0D4A1A6000BF0A4BA8
:104520009B6803F0F0031B090B4AD35CDBB23B61D1
:10453000064B1A683B69DA40044B1A601C37BD46CB
:104540005DF8047B704700BF00380240080000207F
:104550000024F40000127A000C00002080B483B024
:1045600000AF00237B6000233B60424B414A12684E
:1045700042F480321A603F4B1B6803F400333B6007
:104580007B6801337B603B68002B03D17B68B3F50C
:10459000A04FF0D1374B1B6803F40033002B02D03F
:1045A00001233B6001E000233B603B68012B02D10B
:1045B000304B314A5A602F4B2E4A126C42F08052D7
:1045C0001A642E4B2D4A126842F440421A60294B5D
:1045D000284A92689A60274B264A926842F4004221
:1045E0009A60244B234A926842F4A0529A60214B6D
:1045F000204A126842F080721A6000BF1D4B1B688F
:1046000003F00073002BF9D01C4B1C4A126842F4D3
:1046100080321A6000BF194B5B6803F48033002BB3
:10462000F9D0164B154A126842F400321A6000BFE6
:10463000124B5B6803F40033002BF9D0104B40F2AF
:1046400005721A600B4B0B4A926822F003029A60C3
:10465000084B084A926842F002029A6000BF054B7C
:104660009B6803F00C03082BF9D10C37BD465DF8AD
:10467000047B704700380240085A40070070004031
:10468000003C024080B592B000AF0120012108F04B
:1046900057F91020012108F053F92020012108F0DA
:1046A0004FF91020012108F0C3F94FF48070012167
:1046B00008F0BEF94FF40070012108F0B9F94FF489
:1046C0008060012108F0B4F94FF4C0633B64022319
:1046D00087F84430002387F84630012387F84730B5
:1046E000032387F8453007F140038748194607F050
:1046F000ADFB85480921072207F016FD82480A21F3
:10470000072207F011FD01233B64002387F84430A2
:10471000032387F84530002387F8473007F140032B
:104720007948194607F092FB7C233B64002387F805
:104730004430032387F84530012387F8473007F1D9
:1047400040037248194607F081FB01233B6407F1DF
:1047500040036D48194607F079FB40233B6403236F
:1047600087F84430032387F84530002387F8473023
:1047700007F140036648194607F068FB20233B64B5
:1047800007F140036048194607F060FB08233B64CB
:1047900007F140035F48194607F058FB0023BB614F
:1047A0000023FB6100233B6200237B6207F11803B7
:1047B000184609F0BBFC09F039FC0023BB6200235A
:1047C00087F82C30012387F82D3000237B630023EA
:1047D000BB63012387F83C3007F128034E48194694
:1047E00009F032FC07F128034C48194609F02CFC6B
:1047F00007F128034A48194609F026FC46480421D7
:104800000122072309F070FD4448052101220723F6
:1048100009F06AFD42480D210122072309F064FDD9
:104820003D48012109F068FE3C48012109F064FE81
:104830003B48012109F060FE3748002109F0D0FE15
:104840003648002109F0CCFE3548002109F0C8FEA9
:104850003148012109F0A8FC3048012109F0A4FCED
:104860002F48012109F0A0FC2B4809F001FE2B483C
:1048700009F0FEFD2A4809F0FBFD4FF49643BB60AA
:104880000023BB820C237B8200233B820023FB811D
:104890000023BB8107F108032248194608F0A4FF52
:1048A000204840F22551012209F0D8FA25233B7116
:1048B0000123FB7105237B710523BB713B1D18464A
:1048C00004F020F91748012109F0A4F858233B719E
:1048D0000123FB7105237B710523BB713B1D18462A
:1048E00004F010F90120012107F082F908200021CD
:1048F00007F07EF94FF4A27006F02AFE0A4B002260
:104900001A804837BD4680BD0000024000100240BA
:104910000014024000080240002201400020014033
:104920000021014000100140F618002080B582B03F
:1049300000AF0023FB710C4840F2255109F002FB47
:104940000346002B0DD0084B9B889BB2DBB2FB715A
:10495000064B1A68FB1D104619460022002300F082
:10496000D5FC0837BD4680BD001001401C09002061
:1049700080B500AF012007F081F90346002B10D06D
:10498000084B1B681846002100F054FD064B4FF001
:1049900080521A60BFF34F8FBFF36F8F012007F073
:1049A00095F980BD2009002004ED00E080B582B0BB
:1049B00000AF0346FB71FB799BB20748194609F02B
:1049C000A7F800BF0448402109F090FA0346002BE5
:1049D000F8D00837BD4680BD0010014080B500AF5B
:1049E000FFF70CFD4FF4407004F07AF80FF0B0FBC5
:1049F000002006F053FD0F48FF2107F017F80E487E
:104A0000FF2107F013F8012006F0B0FD642001211A
:104A1000002200F0FDF90246084B1A600120002137
:104A2000032200F0F5F90246054B1A60FFF72AFE53
:104A300080BD00BF84680140046901401C0900205A
:104A40002009002080B500AF0F4B1B88002B0DD133
:104A500001200DF0F1F90D48002106F0E7FF0120DB
:104A600006F084FD084B01221A800CE000200DF0B6
:104A7000E3F90648FF2106F0D9FF012006F076FD94
:104A8000014B00221A8080BDF61800200469014005
:104A900080B483B000AF78603960FEE780B400AFC7
:104AA000BD465DF8047B7047002100F004B80C4B54
:104AB0005B58435004310B480B4B42189A42FFF4A9
:104AC000F6AF0A4A00F003B8002342F8043B084B53
:104AD0009A42FFF4F9AFFFF791FCFCF76BFC7047CB
:104AE000B04002080000002018090020180900202A
:104AF000F0490120FFF7FEBF80B483B000AF7860BB
:104B00007B6803F108027B685A607B684FF0FF32D4
:104B10009A607B6803F108027B68DA607B6803F1C6
:104B200008027B681A617B6800221A600C37BD4658
:104B30005DF8047B704700BF80B483B000AF78603D
:104B40007B6800221A610C37BD465DF8047B704714
:104B500080B485B000AF786039607B685B68FB60CB
:104B60003B68FA685A60FB689A683B689A60FB6821
:104B70009B683A685A60FB683A689A603B687A6852
:104B80001A617B681B685A1C7B681A601437BD4623
:104B90005DF8047B704700BF80B485B000AF7860DB
:104BA00039603B681B68BB60BB68B3F1FF3F03D152
:104BB0007B681B69FB600CE07B680833FB6002E0EC
:104BC000FB685B68FB60FB685B681A68BB689A42BD
:104BD000F6D9FB685A683B685A603B685B683A687C
:104BE0009A603B68FA689A60FB683A685A603B686A
:104BF0007A681A617B681B685A1C7B681A601437D4
:104C0000BD465DF8047B704780B485B000AF786026
:104C10007B681B69FB607B685B687A6892689A6056
:104C20007B689B687A6852685A60FB685A687B6840
:104C30009A4203D17B689A68FB685A607B680022BD
:104C40001A61FB681B685A1EFB681A60FB681B68C8
:104C500018461437BD465DF8047B704780B584B0B4
:104C600000AF786039607B68FB60FB68002B09D17E
:104C70004FF0500383F31188BFF36F8FBFF34F8F53
:104C8000BB60FEE7FFF726FAFB681A68FB68DB6B80
:104C9000F968096C01FB03F31A44FB685A60FB686E
:104CA00000229A63FB681A68FB689A60FB681A68BE
:104CB000FB68DB6B013BF968096C01FB03F31A44E9
:104CC000FB68DA60FB68FF2283F84420FB68FF2260
:104CD00083F845203B68002B14D1FB681B69002B2F
:104CE0001AD0FB681033184602F02EFA0346002B48
:104CF00012D00D4B4FF080521A60BFF34F8FBFF3AD
:104D00006F8F09E0FB6810331846FFF7F5FEFB686C
:104D100024331846FFF7F0FEFFF7F8F90123184691
:104D20001037BD4680BD00BF04ED00E080B58EB0F9
:104D300002AFF860B9607A603B60FB68002B09D174
:104D40004FF0500383F31188BFF36F8FBFF34F8F82
:104D5000BB62FEE73B68002B09D14FF0500383F3A1
:104D60001188BFF36F8FBFF34F8F7B62FEE77B68C5
:104D7000002B02D0BB68002B01D0012300E00023F0
:104D8000002B09D14FF0500383F31188BFF36F8FCD
:104D9000BFF34F8F3B62FEE77B68002B02D1BB68FD
:104DA000002B01D1012300E00023002B09D14FF09B
:104DB000500383F31188BFF36F8FBFF34F8FFB61F5
:104DC000FEE750237B617B69502B09D04FF05003E5
:104DD00083F31188BFF36F8FBFF34F8FBB61FEE783
:104DE0003B68FB62FB6A002B0CD0FB6A012283F854
:104DF000462097F83830FA6A0092F868B9687A68FD
:104E000000F042F8FB6A18463037BD4680BD00BF4F
:104E100080B58AB002AFF860B9601346FB71FB68D9
:104E2000002B09D14FF0500383F31188BFF36F8F2C
:104E3000BFF34F8F3B61FEE7BB68002B02D100231D
:104E4000FB6104E0FB68BA6802FB03F3FB61FB69EA
:104E50005033184603F074FDB861BB69002B0ED0C7
:104E6000BB6950337B61BB69002283F84620FB7924
:104E7000BA690092F868B9687A6900F005F8BB6908
:104E800018462037BD4680BD80B584B000AFF860BD
:104E9000B9607A60FB70BB68002B03D1BB69BA694B
:104EA0001A6002E0BB697A681A60BB69FA68DA6363
:104EB000BB69BA681A64B8690121FFF7CFFEBB6904
:104EC000FA7883F84C201037BD4680BD80B582B09B
:104ED00000AF78607B68002B0ED07B6800225A60A0
:104EE0007B6800221A607B680022DA607868002103
:104EF0000022002300F00CF90837BD4680BD00BF3A
:104F000080B586B000AF0346FB7101237B610023AF
:104F10003B61FB79786939691A46FFF779FFF860D8
:104F2000F868FFF7D3FFFB6818461837BD4680BD09
:104F300080B588B002AF03463960FB7101237B6105
:104F400000233B61FB7900937869396900223B6853
:104F5000FFF7ECFEF860F868FFF7B8FFFB6818464B
:104F60001837BD4680BD00BF90B587B000AF7860F0
:104F70007B683B613B69002B09D14FF0500383F301
:104F80001188BFF36F8FBFF34F8FFB60FEE73B6964
:104F90005C6802F003FC03469C4211D13B69DB686C
:104FA0005A1E3B69DA603B69DB68002B05D1386922
:104FB00000210022002300F0ABF801237B6101E017
:104FC00000237B617B6918461C37BD4690BD00BF3E
:104FD00090B587B000AF786039607B683B613B6912
:104FE000002B09D14FF0500383F31188BFF36F8F6B
:104FF000BFF34F8FFB60FEE73B695C6802F0CEFBBE
:1050000003469C4207D13B69DB685A1C3B69DA6066
:1050100001237B610EE0386900213A68002300F02B
:1050200093FA78617B69002B04D03B69DB685A1CDA
:105030003B69DA607B6918461C37BD4690BD00BFEE
:1050400080B58AB002AFF860B9607A60FB68002B67
:1050500009D14FF0500383F31188BFF36F8FBFF373
:105060004F8FBB61FEE7BA68FB689A4209D94FF0DF
:10507000500383F31188BFF36F8FBFF34F8F7B61B2
:10508000FEE702230093F868002100227B68FFF707
:105090004DFEF861FB69002B02D0FB69BA689A6388
:1050A000FB6918462037BD4680BD00BF80B586B07D
:1050B00000AF786039607B68002B09D14FF0500356
:1050C00083F31188BFF36F8FBFF34F8F3B61FEE710
:1050D0003A687B689A4209D94FF0500383F31188EC
:1050E000BFF36F8FBFF34F8FFB60FEE7786800213F
:1050F0000222FFF78DFE78617B69002B02D07B696D
:105100003A689A637B6918461837BD4680BD00BF70
:1051100080B58EB000AFF860B9607A603B60002364
:105120007B63FB683B633B6B002B09D14FF0500363
:1051300083F31188BFF36F8FBFF34F8FBB62FEE71E
:10514000BB68002B03D13B6B1B6C002B01D10123EF
:1051500000E00023002B09D14FF0500383F31188A6
:10516000BFF36F8FBFF34F8F7B62FEE73B68022B6D
:1051700003D13B6BDB6B012B01D1012300E000234A
:10518000002B09D14FF0500383F31188BFF36F8FC9
:10519000BFF34F8F3B62FEE702F010FB0346002B8C
:1051A00002D17B68002B01D1012300E00023002BFA
:1051B00009D14FF0500383F31188BFF36F8FBFF312
:1051C0004F8FFB61FEE7FEF785FF3B6B9A6B3B6BF6
:1051D000DB6B9A4202D33B68022B29D1386BB9684A
:1051E0003A6800F051FCF8623B6B5B6A002B10D010
:1051F0003B6B2433184601F0A7FF0346002B13D066
:10520000414B4FF080521A60BFF34F8FBFF36F8F47
:105210000AE0FB6A002B07D03B4B4FF080521A602C
:10522000BFF34F8FBFF36F8FFEF770FF012367E06F
:105230007B68002B03D1FEF769FF002360E07B6BE6
:10524000002B06D107F11403184602F045F801239C
:105250007B63FEF75BFF01F027FCFEF73BFF3B6B38
:1052600093F84430DBB25BB2B3F1FF3F03D13B6B49
:10527000002283F844203B6B93F84530DBB25BB2ED
:10528000B3F1FF3F03D13B6B002283F84520FEF7CB
:105290003DFF07F114023B1D1046194602F03EF88F
:1052A0000346002B24D1386B00F008FD0346002B89
:1052B00018D03B6B03F110027B681046194601F0D1
:1052C000BDFE386B00F072FC01F0FCFB0346002BC6
:1052D00015D10D4B4FF080521A60BFF34F8FBFF3C3
:1052E0006F8F0CE0386B00F061FC01F0EBFB6AE7BC
:1052F000386B00F05BFC01F0E5FB002300E062E7A7
:1053000018463837BD4680BD04ED00E080B58EB04C
:1053100000AFF860B9607A603B60FB683B633B6B51
:10532000002B09D14FF0500383F31188BFF36F8F27
:10533000BFF34F8F7B62FEE7BB68002B03D13B6B53
:105340001B6C002B01D1012300E00023002B09D1AD
:105350004FF0500383F31188BFF36F8FBFF34F8F6C
:105360003B62FEE73B68022B03D13B6BDB6B012BFF
:1053700001D1012300E00023002B09D14FF050039D
:1053800083F31188BFF36F8FBFF34F8FFB61FEE78D
:10539000FEF75AFFEFF311824FF0500383F31188A9
:1053A000BFF36F8FBFF34F8FBA617B61BB69FB6245
:1053B0003B6B9A6B3B6BDB6B9A4202D33B68022BD5
:1053C0002CD13B6B93F8453087F82B30386BB9689C
:1053D0003A6800F059FB97F92B30B3F1FF3F12D137
:1053E0003B6B5B6A002B16D03B6B2433184601F0F5
:1053F000ABFE0346002B0ED07B68002B0BD07B68E6
:1054000001221A6007E097F82B300133DBB2DAB2E1
:105410003B6B83F8452001237B6301E000237B6322
:10542000FB6A3B613B6983F311887B6B1846383715
:10543000BD4680BD80B58EB000AF786039607B68B6
:105440003B633B6B002B09D14FF0500383F3118872
:10545000BFF36F8FBFF34F8F3B62FEE73B6B1B6C5D
:10546000002B09D04FF0500383F31188BFF36F8FE7
:10547000BFF34F8FFB61FEE73B6B1B68002B03D133
:105480003B6B5B68002B01D1012300E00023002B64
:1054900009D14FF0500383F31188BFF36F8FBFF32F
:1054A0004F8FBB61FEE7FEF7CFFEEFF311824FF0A7
:1054B000500383F31188BFF36F8FBFF34F8F7A616F
:1054C0003B617B69FB623B6B9B6BBB623B6BDA6B4B
:1054D000BB6A9A422BD93B6B93F8453087F827304B
:1054E000BB6A5A1C3B6B9A6397F92730B3F1FF3FB5
:1054F00012D13B6B5B6A002B16D03B6B24331846F2
:1055000001F022FE0346002B0ED03B68002B0BD08F
:105510003B6801221A6007E097F827300133DBB2BD
:10552000DAB23B6B83F8452001237B6301E0002363
:105530007B63FB6AFB60FB6883F311887B6B184617
:105540003837BD4680BD00BF80B58EB000AFF86073
:10555000B9607A603B6000237B63FB683B633B6B15
:10556000002B09D14FF0500383F31188BFF36F8FE5
:10557000BFF34F8F7B62FEE7BB68002B03D13B6B11
:105580001B6C002B01D1012300E00023002B09D16B
:105590004FF0500383F31188BFF36F8FBFF34F8F2A
:1055A0003B62FEE702F00AF90346002B02D17B685A
:1055B000002B01D1012300E00023002B09D14FF083
:1055C000500383F31188BFF36F8FBFF34F8FFB61DD
:1055D000FEE7FEF77FFD3B6B9B6BFB62FB6A002BDC
:1055E00046D03B6BDB68BB62386BB96800F0B8FA39
:1055F0003B68002B21D1FB6A5A1E3B6B9A633B6BC5
:105600001B68002B04D102F009FA02463B6B5A607A
:105610003B6B1B69002B27D03B6B1033184601F006
:1056200093FD0346002B1FD0514B4FF080521A6060
:10563000BFF34F8FBFF36F8F16E03B6BBA6ADA6030
:105640003B6B5B6A002B0FD03B6B2433184601F099
:105650007BFD0346002B07D0454B4FF080521A606C
:10566000BFF34F8FBFF36F8FFEF750FD01237AE03A
:105670007B68002B03D1FEF749FD002373E07B6BB1
:10568000002B06D107F11403184601F025FE012373
:105690007B63FEF73BFD01F007FAFEF71BFD3B6B5A
:1056A00093F84430DBB25BB2B3F1FF3F03D13B6B05
:1056B000002283F844203B6B93F84530DBB25BB2A9
:1056C000B3F1FF3F03D13B6B002283F84520FEF787
:1056D0001DFD07F114023B1D1046194601F01EFE88
:1056E0000346002B31D1386B00F0B0FA0346002B93
:1056F00025D03B6B1B68002B08D1FEF7EBFC3B6B06
:105700005B68184602F078F8FEF700FD3B6B03F18A
:1057100024027B681046194601F090FC386B00F0BB
:1057200045FA01F0CFF90346002B1BD1104B4FF087
:1057300080521A60BFF34F8FBFF36F8F12E0386B48
:1057400000F034FA01F0BEF943E7386B00F02EFAAE
:1057500001F0B8F9386B00F079FA0346002B01D05C
:10576000002300E035E718463837BD4680BD00BF4E
:1057700004ED00E080B58EB000AFF860B9607A60EB
:10578000FB683B633B6B002B09D14FF0500383F365
:105790001188BFF36F8FBFF34F8F3B62FEE7BB688B
:1057A000002B03D13B6B1B6C002B01D1012300E0CC
:1057B0000023002B09D14FF0500383F31188BFF36E
:1057C0006F8FBFF34F8FFB61FEE7FEF73DFDEFF3F9
:1057D00011824FF0500383F31188BFF36F8FBFF333
:1057E0004F8FBA617B61BB69FB623B6B9B6BBB629A
:1057F000BB6A002B2FD03B6B93F8443087F82730DF
:10580000386BB96800F0ACF9BB6A5A1E3B6B9A63FF
:1058100097F92730B3F1FF3F12D13B6B1B69002B87
:1058200016D03B6B1033184601F08EFC0346002B5C
:105830000ED07B68002B0BD07B6801221A6007E03A
:1058400097F827300133DBB2DAB23B6B83F84420A0
:1058500001237B6301E000237B63FB6A3B613B69BF
:1058600083F311887B6B18463837BD4680BD00BF77
:1058700080B58CB000AF786039607B68BB62BB6A72
:10588000002B09D14FF0500383F31188BFF36F8FC2
:10589000BFF34F8FFB61FEE73B68002B03D1BB6A70
:1058A0001B6C002B01D1012300E00023002B09D148
:1058B0004FF0500383F31188BFF36F8FBFF34F8F07
:1058C000BB61FEE7BB6A1B6C002B09D14FF0500394
:1058D00083F31188BFF36F8FBFF34F8F7B61FEE7B8
:1058E000FEF7B2FCEFF311824FF0500383F31188FF
:1058F000BFF36F8FBFF34F8F3A61FB603B697B62F1
:10590000BB6A9B6B002B0CD0BB6ADB683B62B86A3E
:10591000396800F025F9BB6A3A6ADA600123FB6254
:1059200001E00023FB627B6ABB60BB6883F31188E4
:10593000FB6A18463037BD4680BD00BF80B584B0D5
:1059400000AF78607B68002B09D14FF0500383F3E0
:105950001188BFF36F8FBFF34F8FBB60FEE7FEF779
:10596000B9FB7B689B6BFB60FEF7D0FBFB681846BE
:105970001037BD4680BD00BF80B586B000AF7860EF
:105980007B687B617B69002B09D14FF0500383F367
:105990001188BFF36F8FBFF34F8FFB60FEE7FEF7F9
:1059A00099FB7B69DA6B7B699B6BD31A3B61FEF7D2
:1059B000ADFB3B6918461837BD4680BD80B485B045
:1059C00000AF78607B68002B09D14FF0500383F360
:1059D0001188BFF36F8FBFF34F8FBB60FEE77B680B
:1059E0009B6BFB60FB6818461437BD465DF8047B73
:1059F000704700BF80B584B000AF78607B68FB6003
:105A0000FB68002B09D14FF0500383F31188BFF3DB
:105A10006F8FBFF34F8FBB60FEE7F86800F0D8F9D7
:105A2000FB6893F84630002B02D1F86802F0D4FFEF
:105A30001037BD4680BD00BF80B483B000AF786032
:105A40007B689B6C18460C37BD465DF8047B70473D
:105A500080B483B000AF786039607B683A689A643C
:105A60000C37BD465DF8047B704700BF80B483B03F
:105A700000AF78607B6893F84C3018460C37BD4611
:105A80005DF8047B704700BF80B586B000AFF8605A
:105A9000B9607A6000237B61FB689B6B3B61FB68AC
:105AA0001B6C002B0DD1FB681B68002B4FD1FB68D2
:105AB0005B68184601F016FF7861FB6800225A60A7
:105AC00045E07B68002B1AD1FB689A68FB681B6C69
:105AD0001046B9681A46FAF775FBFB689A68FB68C6
